{
  "contractName": "CharityFunc",
  "abi": [
    {
      "constant": true,
      "inputs": [],
      "name": "name",
      "outputs": [
        {
          "name": "",
          "type": "string"
        }
      ],
      "payable": false,
      "stateMutability": "view",
      "type": "function"
    },
    {
      "constant": true,
      "inputs": [],
      "name": "totalSupply",
      "outputs": [
        {
          "name": "",
          "type": "uint256"
        }
      ],
      "payable": false,
      "stateMutability": "view",
      "type": "function"
    },
    {
      "constant": false,
      "inputs": [
        {
          "name": "_from",
          "type": "address"
        },
        {
          "name": "_to",
          "type": "address"
        },
        {
          "name": "_value",
          "type": "uint256"
        }
      ],
      "name": "transferFrom",
      "outputs": [
        {
          "name": "",
          "type": "bool"
        }
      ],
      "payable": false,
      "stateMutability": "nonpayable",
      "type": "function"
    },
    {
      "constant": true,
      "inputs": [],
      "name": "decimals",
      "outputs": [
        {
          "name": "",
          "type": "uint8"
        }
      ],
      "payable": false,
      "stateMutability": "view",
      "type": "function"
    },
    {
      "constant": true,
      "inputs": [
        {
          "name": "_owner",
          "type": "address"
        }
      ],
      "name": "balanceOf",
      "outputs": [
        {
          "name": "balance",
          "type": "uint256"
        }
      ],
      "payable": false,
      "stateMutability": "view",
      "type": "function"
    },
    {
      "constant": true,
      "inputs": [],
      "name": "owner",
      "outputs": [
        {
          "name": "",
          "type": "address"
        }
      ],
      "payable": false,
      "stateMutability": "view",
      "type": "function"
    },
    {
      "constant": true,
      "inputs": [],
      "name": "symbol",
      "outputs": [
        {
          "name": "",
          "type": "string"
        }
      ],
      "payable": false,
      "stateMutability": "view",
      "type": "function"
    },
    {
      "constant": false,
      "inputs": [
        {
          "name": "_to",
          "type": "address"
        },
        {
          "name": "_value",
          "type": "uint256"
        }
      ],
      "name": "transfer",
      "outputs": [
        {
          "name": "",
          "type": "bool"
        }
      ],
      "payable": false,
      "stateMutability": "nonpayable",
      "type": "function"
    },
    {
      "constant": false,
      "inputs": [
        {
          "name": "newOwner",
          "type": "address"
        }
      ],
      "name": "transferOwnership",
      "outputs": [],
      "payable": false,
      "stateMutability": "nonpayable",
      "type": "function"
    },
    {
      "inputs": [],
      "payable": false,
      "stateMutability": "nonpayable",
      "type": "constructor"
    },
    {
      "anonymous": false,
      "inputs": [
        {
          "indexed": false,
          "name": "_userAdd",
          "type": "address"
        }
      ],
      "name": "regCheck",
      "type": "event"
    },
    {
      "anonymous": false,
      "inputs": [
        {
          "indexed": false,
          "name": "_userAdd",
          "type": "address"
        },
        {
          "indexed": false,
          "name": "_name",
          "type": "string"
        }
      ],
      "name": "regSuccess",
      "type": "event"
    },
    {
      "anonymous": false,
      "inputs": [
        {
          "indexed": true,
          "name": "from",
          "type": "address"
        },
        {
          "indexed": true,
          "name": "to",
          "type": "address"
        },
        {
          "indexed": false,
          "name": "value",
          "type": "uint256"
        }
      ],
      "name": "Transfer",
      "type": "event"
    },
    {
      "anonymous": false,
      "inputs": [
        {
          "indexed": true,
          "name": "previousOwner",
          "type": "address"
        },
        {
          "indexed": true,
          "name": "newOwner",
          "type": "address"
        }
      ],
      "name": "OwnershipTransferred",
      "type": "event"
    },
    {
      "constant": false,
      "inputs": [
        {
          "name": "_name",
          "type": "string"
        },
        {
          "name": "_password",
          "type": "string"
        },
        {
          "name": "_emailId",
          "type": "string"
        }
      ],
      "name": "userDetails",
      "outputs": [],
      "payable": false,
      "stateMutability": "nonpayable",
      "type": "function"
    },
    {
      "constant": false,
      "inputs": [
        {
          "name": "_name",
          "type": "string"
        },
        {
          "name": "_password",
          "type": "string"
        },
        {
          "name": "_emailId",
          "type": "string"
        }
      ],
      "name": "charityDetails",
      "outputs": [],
      "payable": false,
      "stateMutability": "nonpayable",
      "type": "function"
    },
    {
      "constant": false,
      "inputs": [
        {
          "name": "_token",
          "type": "uint256"
        }
      ],
      "name": "userTokenRequest",
      "outputs": [],
      "payable": false,
      "stateMutability": "nonpayable",
      "type": "function"
    },
    {
      "constant": false,
      "inputs": [
        {
          "name": "_userIn",
          "type": "address"
        }
      ],
      "name": "userApproval",
      "outputs": [],
      "payable": true,
      "stateMutability": "payable",
      "type": "function"
    }
  ],
  "bytecode": "0x608060405234801561001057600080fd5b50336000806101000a81548173ffffffffffffffffffffffffffffffffffffffff021916908373ffffffffffffffffffffffffffffffffffffffff1602179055506000600660ff16600a0a601f029050610082816002546101d7640100000000026116a8179091906401000000009004565b6002819055506100e781600160003373ffffffffffffffffffffffffffffffffffffffff1673ffffffffffffffffffffffffffffffffffffffff168152602001908152602001600020546101d7640100000000026116a8179091906401000000009004565b600160003373ffffffffffffffffffffffffffffffffffffffff1673ffffffffffffffffffffffffffffffffffffffff168152602001908152602001600020819055503373ffffffffffffffffffffffffffffffffffffffff16600073ffffffffffffffffffffffffffffffffffffffff167fddf252ad1be2c89b69c2b068fc378daa952ba7f163c4a11628f55a4df523b3ef836040518082815260200191505060405180910390a35033600360006101000a81548173ffffffffffffffffffffffffffffffffffffffff021916908373ffffffffffffffffffffffffffffffffffffffff1602179055506101f5565b60008082840190508381101515156101eb57fe5b8091505092915050565b61179780620002056000396000f3fe6080604052600436106100c5576000357c0100000000000000000000000000000000000000000000000000000000900463ffffffff16806306fdde03146100ca57806318160ddd1461015a57806323b872dd1461018557806326aaadfa14610218578063313ce5671461025357806370a08231146102845780637f0c579b146102e95780638da5cb5b1461032d57806395d89b4114610384578063a721de8e14610414578063a9059cbb1461060a578063ecdbfec51461067d578063f2fde38b14610873575b600080fd5b3480156100d657600080fd5b506100df6108c4565b6040518080602001828103825283818151815260200191508051906020019080838360005b8381101561011f578082015181840152602081019050610104565b50505050905090810190601f16801561014c5780820380516001836020036101000a031916815260200191505b509250505060405180910390f35b34801561016657600080fd5b5061016f6108fd565b6040518082815260200191505060405180910390f35b34801561019157600080fd5b506101fe600480360360608110156101a857600080fd5b81019080803573ffffffffffffffffffffffffffffffffffffffff169060200190929190803573ffffffffffffffffffffffffffffffffffffffff16906020019092919080359060200190929190505050610907565b604051808215151515815260200191505060405180910390f35b34801561022457600080fd5b506102516004803603602081101561023b57600080fd5b8101908080359060200190929190505050610b2c565b005b34801561025f57600080fd5b50610268610b73565b604051808260ff1660ff16815260200191505060405180910390f35b34801561029057600080fd5b506102d3600480360360208110156102a757600080fd5b81019080803573ffffffffffffffffffffffffffffffffffffffff169060200190929190505050610b78565b6040518082815260200191505060405180910390f35b61032b600480360360208110156102ff57600080fd5b81019080803573ffffffffffffffffffffffffffffffffffffffff169060200190929190505050610bc1565b005b34801561033957600080fd5b50610342610c69565b604051808273ffffffffffffffffffffffffffffffffffffffff1673ffffffffffffffffffffffffffffffffffffffff16815260200191505060405180910390f35b34801561039057600080fd5b50610399610c8e565b6040518080602001828103825283818151815260200191508051906020019080838360005b838110156103d95780820151818401526020810190506103be565b50505050905090810190601f1680156104065780820380516001836020036101000a031916815260200191505b509250505060405180910390f35b34801561042057600080fd5b506106086004803603606081101561043757600080fd5b810190808035906020019064010000000081111561045457600080fd5b82018360208201111561046657600080fd5b8035906020019184600183028401116401000000008311171561048857600080fd5b91908080601f016020809104026020016040519081016040528093929190818152602001838380828437600081840152601f19601f820116905080830192505050505050509192919290803590602001906401000000008111156104eb57600080fd5b8201836020820111156104fd57600080fd5b8035906020019184600183028401116401000000008311171561051f57600080fd5b91908080601f016020809104026020016040519081016040528093929190818152602001838380828437600081840152601f19601f8201169050808301925050505050505091929192908035906020019064010000000081111561058257600080fd5b82018360208201111561059457600080fd5b803590602001918460018302840111640100000000831117156105b657600080fd5b91908080601f016020809104026020016040519081016040528093929190818152602001838380828437600081840152601f19601f820116905080830192505050505050509192919290505050610cc7565b005b34801561061657600080fd5b506106636004803603604081101561062d57600080fd5b81019080803573ffffffffffffffffffffffffffffffffffffffff16906020019092919080359060200190929190505050610fbd565b604051808215151515815260200191505060405180910390f35b34801561068957600080fd5b50610871600480360360608110156106a057600080fd5b81019080803590602001906401000000008111156106bd57600080fd5b8201836020820111156106cf57600080fd5b803590602001918460018302840111640100000000831117156106f157600080fd5b91908080601f016020809104026020016040519081016040528093929190818152602001838380828437600081840152601f19601f8201169050808301925050505050505091929192908035906020019064010000000081111561075457600080fd5b82018360208201111561076657600080fd5b8035906020019184600183028401116401000000008311171561078857600080fd5b91908080601f016020809104026020016040519081016040528093929190818152602001838380828437600081840152601f19601f820116905080830192505050505050509192919290803590602001906401000000008111156107eb57600080fd5b8201836020820111156107fd57600080fd5b8035906020019184600183028401116401000000008311171561081f57600080fd5b91908080601f016020809104026020016040519081016040528093929190818152602001838380828437600081840152601f19601f8201169050808301925050505050505091929192905050506111e1565b005b34801561087f57600080fd5b506108c26004803603602081101561089657600080fd5b81019080803573ffffffffffffffffffffffffffffffffffffffff16906020019092919050505061153a565b005b6040805190810160405280600c81526020017f48656c7048616e64436f696e000000000000000000000000000000000000000081525081565b6000600254905090565b60008073ffffffffffffffffffffffffffffffffffffffff168373ffffffffffffffffffffffffffffffffffffffff161415151561094457600080fd5b600160008573ffffffffffffffffffffffffffffffffffffffff1673ffffffffffffffffffffffffffffffffffffffff16815260200190815260200160002054821115151561099257600080fd5b6109e482600160008773ffffffffffffffffffffffffffffffffffffffff1673ffffffffffffffffffffffffffffffffffffffff1681526020019081526020016000205461168f90919063ffffffff16565b600160008673ffffffffffffffffffffffffffffffffffffffff1673ffffffffffffffffffffffffffffffffffffffff16815260200190815260200160002081905550610a7982600160008673ffffffffffffffffffffffffffffffffffffffff1673ffffffffffffffffffffffffffffffffffffffff168152602001908152602001600020546116a890919063ffffffff16565b600160008573ffffffffffffffffffffffffffffffffffffffff1673ffffffffffffffffffffffffffffffffffffffff168152602001908152602001600020819055508273ffffffffffffffffffffffffffffffffffffffff168473ffffffffffffffffffffffffffffffffffffffff167fddf252ad1be2c89b69c2b068fc378daa952ba7f163c4a11628f55a4df523b3ef846040518082815260200191505060405180910390a3600190509392505050565b80600560003373ffffffffffffffffffffffffffffffffffffffff1673ffffffffffffffffffffffffffffffffffffffff1681526020019081526020016000208190555050565b600681565b6000600160008373ffffffffffffffffffffffffffffffffffffffff1673ffffffffffffffffffffffffffffffffffffffff168152602001908152602001600020549050919050565b6000809054906101000a900473ffffffffffffffffffffffffffffffffffffffff1673ffffffffffffffffffffffffffffffffffffffff163373ffffffffffffffffffffffffffffffffffffffff16141515610c1c57600080fd5b610c6581600560008473ffffffffffffffffffffffffffffffffffffffff1673ffffffffffffffffffffffffffffffffffffffff16815260200190815260200160002054610fbd565b5050565b6000809054906101000a900473ffffffffffffffffffffffffffffffffffffffff1681565b6040805190810160405280600381526020017f484843000000000000000000000000000000000000000000000000000000000081525081565b82600460003373ffffffffffffffffffffffffffffffffffffffff1673ffffffffffffffffffffffffffffffffffffffff1681526020019081526020016000206000019080519060200190610d1d9291906116c6565b5081600460003373ffffffffffffffffffffffffffffffffffffffff1673ffffffffffffffffffffffffffffffffffffffff1681526020019081526020016000206001019080519060200190610d749291906116c6565b5080600460003373ffffffffffffffffffffffffffffffffffffffff1673ffffffffffffffffffffffffffffffffffffffff1681526020019081526020016000206002019080519060200190610dcb9291906116c6565b5033600460003373ffffffffffffffffffffffffffffffffffffffff1673ffffffffffffffffffffffffffffffffffffffff16815260200190815260200160002060030160006101000a81548173ffffffffffffffffffffffffffffffffffffffff021916908373ffffffffffffffffffffffffffffffffffffffff1602179055507f6300000000000000000000000000000000000000000000000000000000000000600460003373ffffffffffffffffffffffffffffffffffffffff1673ffffffffffffffffffffffffffffffffffffffff16815260200190815260200160002060030160146101000a81548160ff02191690837f0100000000000000000000000000000000000000000000000000000000000000900402179055507fb42fdd03aec288a6ea4eb3d40d073f60d978331ee05fceb98817e213cfe813513384604051808373ffffffffffffffffffffffffffffffffffffffff1673ffffffffffffffffffffffffffffffffffffffff16815260200180602001828103825283818151815260200191508051906020019080838360005b83811015610f7d578082015181840152602081019050610f62565b50505050905090810190601f168015610faa5780820380516001836020036101000a031916815260200191505b50935050505060405180910390a1505050565b60008073ffffffffffffffffffffffffffffffffffffffff168373ffffffffffffffffffffffffffffffffffffffff1614151515610ffa57600080fd5b600160003373ffffffffffffffffffffffffffffffffffffffff1673ffffffffffffffffffffffffffffffffffffffff16815260200190815260200160002054821115151561104857600080fd5b61109a82600160003373ffffffffffffffffffffffffffffffffffffffff1673ffffffffffffffffffffffffffffffffffffffff1681526020019081526020016000205461168f90919063ffffffff16565b600160003373ffffffffffffffffffffffffffffffffffffffff1673ffffffffffffffffffffffffffffffffffffffff1681526020019081526020016000208190555061112f82600160008673ffffffffffffffffffffffffffffffffffffffff1673ffffffffffffffffffffffffffffffffffffffff168152602001908152602001600020546116a890919063ffffffff16565b600160008573ffffffffffffffffffffffffffffffffffffffff1673ffffffffffffffffffffffffffffffffffffffff168152602001908152602001600020819055508273ffffffffffffffffffffffffffffffffffffffff163373ffffffffffffffffffffffffffffffffffffffff167fddf252ad1be2c89b69c2b068fc378daa952ba7f163c4a11628f55a4df523b3ef846040518082815260200191505060405180910390a36001905092915050565b7f62606f08f05e9a905db5faec7730cca9b786766f61a9fb20734b7a2e10ad919133604051808273ffffffffffffffffffffffffffffffffffffffff1673ffffffffffffffffffffffffffffffffffffffff16815260200191505060405180910390a182600460003373ffffffffffffffffffffffffffffffffffffffff1673ffffffffffffffffffffffffffffffffffffffff168152602001908152602001600020600001908051906020019061129a9291906116c6565b5081600460003373ffffffffffffffffffffffffffffffffffffffff1673ffffffffffffffffffffffffffffffffffffffff16815260200190815260200160002060010190805190602001906112f19291906116c6565b5080600460003373ffffffffffffffffffffffffffffffffffffffff1673ffffffffffffffffffffffffffffffffffffffff16815260200190815260200160002060020190805190602001906113489291906116c6565b5033600460003373ffffffffffffffffffffffffffffffffffffffff1673ffffffffffffffffffffffffffffffffffffffff16815260200190815260200160002060030160006101000a81548173ffffffffffffffffffffffffffffffffffffffff021916908373ffffffffffffffffffffffffffffffffffffffff1602179055507f7500000000000000000000000000000000000000000000000000000000000000600460003373ffffffffffffffffffffffffffffffffffffffff1673ffffffffffffffffffffffffffffffffffffffff16815260200190815260200160002060030160146101000a81548160ff02191690837f0100000000000000000000000000000000000000000000000000000000000000900402179055507fb42fdd03aec288a6ea4eb3d40d073f60d978331ee05fceb98817e213cfe813513384604051808373ffffffffffffffffffffffffffffffffffffffff1673ffffffffffffffffffffffffffffffffffffffff16815260200180602001828103825283818151815260200191508051906020019080838360005b838110156114fa5780820151818401526020810190506114df565b50505050905090810190601f1680156115275780820380516001836020036101000a031916815260200191505b50935050505060405180910390a1505050565b6000809054906101000a900473ffffffffffffffffffffffffffffffffffffffff1673ffffffffffffffffffffffffffffffffffffffff163373ffffffffffffffffffffffffffffffffffffffff1614151561159557600080fd5b600073ffffffffffffffffffffffffffffffffffffffff168173ffffffffffffffffffffffffffffffffffffffff16141515156115d157600080fd5b8073ffffffffffffffffffffffffffffffffffffffff166000809054906101000a900473ffffffffffffffffffffffffffffffffffffffff1673ffffffffffffffffffffffffffffffffffffffff167f8be0079c531659141344cd1fd0a4f28419497f9722a3daafe3b4186f6b6457e060405160405180910390a3806000806101000a81548173ffffffffffffffffffffffffffffffffffffffff021916908373ffffffffffffffffffffffffffffffffffffffff16021790555050565b600082821115151561169d57fe5b818303905092915050565b60008082840190508381101515156116bc57fe5b8091505092915050565b828054600181600116156101000203166002900490600052602060002090601f016020900481019282601f1061170757805160ff1916838001178555611735565b82800160010185558215611735579182015b82811115611734578251825591602001919060010190611719565b5b5090506117429190611746565b5090565b61176891905b8082111561176457600081600090555060010161174c565b5090565b9056fea165627a7a72305820173bc9793df929f7034518034c0973061768d8e57628d770ac9a20157d858b860029",
  "source": "pragma solidity >=0.5.0;\n\nimport \"./TokenFunc.sol\";\n\ncontract CharityFunc is Token  {\n    \n    address payable owner;\n    struct godPeople {\n        string name;\n        string password;\n        string emailId;\n        address payable godAdd;\n        bytes1 key;\n    }\n    \n    constructor() public {\n        owner = msg.sender;\n    }\n    \n    event regCheck(address payable _userAdd);\n    event regSuccess(address payable _userAdd,string _name);\n    \n    mapping(address => godPeople) userDonation;\n    \n    function userDetails(string memory _name,string memory _password,string memory _emailId) public {\n        \n        emit regCheck(msg.sender);\n        \n        //require(userDonation[msg.sender].godAdd != msg.sender,\"User already registered\");\n        \n        userDonation[msg.sender].name = _name;\n        userDonation[msg.sender].password = _password;\n        userDonation[msg.sender].emailId = _emailId;\n        userDonation[msg.sender].godAdd = msg.sender;\n        userDonation[msg.sender].key = 'u';\n        \n        \n        emit regSuccess(msg.sender,_name);\n    }\n    \n    function charityDetails(string memory _name,string memory _password,string memory _emailId) public {\n        \n        userDonation[msg.sender].name = _name;\n        userDonation[msg.sender].password = _password;\n        userDonation[msg.sender].emailId = _emailId;\n        userDonation[msg.sender].godAdd = msg.sender;\n        userDonation[msg.sender].key = 'c';\n        \n        emit regSuccess(msg.sender,_name);\n    }\n    \n    mapping(address => uint256) requestToken;\n    \n    function userTokenRequest(uint256 _token) public {\n        requestToken[msg.sender] = _token;\n    }\n    \n    function userApproval(address payable _userIn) payable public onlyOwner {\n        transfer(_userIn,requestToken[_userIn]);\n    }\n}",
  "sourcePath": "/home/akshaysrinivas/CED_Project/CharityChain/contracts/CharityFunc.sol",
  "compiler": {
    "name": "solc",
    "version": "0.5.0+commit.1d4f565a.Emscripten.clang"
  },
  "schemaVersion": "3.0.1",
  "updatedAt": "2019-02-14T09:30:42.566Z",
  "devdoc": {
    "methods": {
      "balanceOf(address)": {
        "details": "Gets the balance of the specified address.",
        "params": {
          "_owner": "The address to query the the balance of."
        },
        "return": "An uint256 representing the amount owned by the passed address."
      },
      "totalSupply()": {
        "details": "total number of tokens in existence"
      },
      "transfer(address,uint256)": {
        "details": "transfer token for a specified address",
        "params": {
          "_to": "The address to transfer to.",
          "_value": "The amount to be transferred."
        }
      },
      "transferFrom(address,address,uint256)": {
        "details": "Transfer tokens from one address to another",
        "params": {
          "_from": "address The address which you want to send tokens from",
          "_to": "address The address which you want to transfer to",
          "_value": "uint256 the amount of tokens to be transferred"
        }
      },
      "transferOwnership(address)": {
        "details": "Allows the current owner to transfer control of the contract to a newOwner.",
        "params": {
          "newOwner": "The address to transfer ownership to."
        }
      }
    }
  },
  "userdoc": {
    "methods": {}
  }
}